{
  "contractName": "Liquidity",
  "abi": [
    {
      "anonymous": false,
      "inputs": [
        {
          "indexed": false,
          "internalType": "string",
          "name": "message",
          "type": "string"
        },
        {
          "indexed": false,
          "internalType": "uint256",
          "name": "val",
          "type": "uint256"
        }
      ],
      "name": "Log",
      "type": "event"
    },
    {
      "inputs": [
        {
          "internalType": "address",
          "name": "_tokenA",
          "type": "address"
        },
        {
          "internalType": "address",
          "name": "_tokenB",
          "type": "address"
        },
        {
          "internalType": "uint256",
          "name": "_amountA",
          "type": "uint256"
        },
        {
          "internalType": "uint256",
          "name": "_amountB",
          "type": "uint256"
        },
        {
          "internalType": "uint256",
          "name": "_amountAmin",
          "type": "uint256"
        },
        {
          "internalType": "uint256",
          "name": "_amountBmin",
          "type": "uint256"
        },
        {
          "internalType": "address",
          "name": "_to",
          "type": "address"
        }
      ],
      "name": "addLiquidity",
      "outputs": [],
      "stateMutability": "nonpayable",
      "type": "function"
    },
    {
      "inputs": [
        {
          "internalType": "address",
          "name": "_tokenA",
          "type": "address"
        },
        {
          "internalType": "address",
          "name": "_tokenB",
          "type": "address"
        },
        {
          "internalType": "uint256",
          "name": "amountAMin",
          "type": "uint256"
        },
        {
          "internalType": "uint256",
          "name": "amountBMin",
          "type": "uint256"
        },
        {
          "internalType": "address",
          "name": "_to",
          "type": "address"
        }
      ],
      "name": "removeLiquidity",
      "outputs": [],
      "stateMutability": "nonpayable",
      "type": "function"
    }
  ],
  "bytecode": "0x608060405234801561001057600080fd5b50610d4b806100206000396000f3fe608060405234801561001057600080fd5b50600436106100365760003560e01c80632388dac11461003b578063ca3d653914610057575b600080fd5b6100556004803603810190610050919061074e565b610073565b005b610071600480360381019061006c91906107c9565b610333565b005b6000735c69bee701ef814a2b6a3edd4b1652cb9cc5aa6f73ffffffffffffffffffffffffffffffffffffffff1663e6a4390587876040518363ffffffff1660e01b81526004016100c492919061087a565b602060405180830381865afa1580156100e1573d6000803e3d6000fd5b505050506040513d601f19601f8201168201806040525081019061010591906108b8565b905060008173ffffffffffffffffffffffffffffffffffffffff166370a08231306040518263ffffffff1660e01b815260040161014291906108e5565b602060405180830381865afa15801561015f573d6000803e3d6000fd5b505050506040513d601f19601f820116820180604052508101906101839190610915565b90508173ffffffffffffffffffffffffffffffffffffffff1663095ea7b3737a250d5630b4cf539739df2c5dacb4c659f2488d836040518363ffffffff1660e01b81526004016101d4929190610951565b6020604051808303816000875af11580156101f3573d6000803e3d6000fd5b505050506040513d601f19601f8201168201806040525081019061021791906109b2565b50600080737a250d5630b4cf539739df2c5dacb4c659f2488d73ffffffffffffffffffffffffffffffffffffffff1663baa2abde8a8a868b8b8b426040518863ffffffff1660e01b815260040161027497969594939291906109df565b60408051808303816000875af1158015610292573d6000803e3d6000fd5b505050506040513d601f19601f820116820180604052508101906102b69190610a4e565b915091507fdd970dd9b5bfe707922155b058a407655cb18288b807e2216442bca8ad83d6b5826040516102e99190610aeb565b60405180910390a17fdd970dd9b5bfe707922155b058a407655cb18288b807e2216442bca8ad83d6b5816040516103209190610b65565b60405180910390a1505050505050505050565b8673ffffffffffffffffffffffffffffffffffffffff166323b872dd3330886040518463ffffffff1660e01b815260040161037093929190610b93565b6020604051808303816000875af115801561038f573d6000803e3d6000fd5b505050506040513d601f19601f820116820180604052508101906103b391906109b2565b508573ffffffffffffffffffffffffffffffffffffffff166323b872dd3330876040518463ffffffff1660e01b81526004016103f193929190610b93565b6020604051808303816000875af1158015610410573d6000803e3d6000fd5b505050506040513d601f19601f8201168201806040525081019061043491906109b2565b508673ffffffffffffffffffffffffffffffffffffffff1663095ea7b3737a250d5630b4cf539739df2c5dacb4c659f2488d876040518363ffffffff1660e01b8152600401610484929190610951565b6020604051808303816000875af11580156104a3573d6000803e3d6000fd5b505050506040513d601f19601f820116820180604052508101906104c791906109b2565b508573ffffffffffffffffffffffffffffffffffffffff1663095ea7b3737a250d5630b4cf539739df2c5dacb4c659f2488d866040518363ffffffff1660e01b8152600401610517929190610951565b6020604051808303816000875af1158015610536573d6000803e3d6000fd5b505050506040513d601f19601f8201168201806040525081019061055a91906109b2565b506000806000737a250d5630b4cf539739df2c5dacb4c659f2488d73ffffffffffffffffffffffffffffffffffffffff1663e8e337008b8b8b8b8b8b8b426040518963ffffffff1660e01b81526004016105bb989796959493929190610bca565b6060604051808303816000875af11580156105da573d6000803e3d6000fd5b505050506040513d601f19601f820116820180604052508101906105fe9190610c48565b9250925092507fdd970dd9b5bfe707922155b058a407655cb18288b807e2216442bca8ad83d6b5836040516106339190610aeb565b60405180910390a17fdd970dd9b5bfe707922155b058a407655cb18288b807e2216442bca8ad83d6b58260405161066a9190610b65565b60405180910390a17fdd970dd9b5bfe707922155b058a407655cb18288b807e2216442bca8ad83d6b5816040516106a19190610ce7565b60405180910390a150505050505050505050565b600080fd5b600073ffffffffffffffffffffffffffffffffffffffff82169050919050565b60006106e5826106ba565b9050919050565b6106f5816106da565b811461070057600080fd5b50565b600081359050610712816106ec565b92915050565b6000819050919050565b61072b81610718565b811461073657600080fd5b50565b60008135905061074881610722565b92915050565b600080600080600060a0868803121561076a576107696106b5565b5b600061077888828901610703565b955050602061078988828901610703565b945050604061079a88828901610739565b93505060606107ab88828901610739565b92505060806107bc88828901610703565b9150509295509295909350565b600080600080600080600060e0888a0312156107e8576107e76106b5565b5b60006107f68a828b01610703565b97505060206108078a828b01610703565b96505060406108188a828b01610739565b95505060606108298a828b01610739565b945050608061083a8a828b01610739565b93505060a061084b8a828b01610739565b92505060c061085c8a828b01610703565b91505092959891949750929550565b610874816106da565b82525050565b600060408201905061088f600083018561086b565b61089c602083018461086b565b9392505050565b6000815190506108b2816106ec565b92915050565b6000602082840312156108ce576108cd6106b5565b5b60006108dc848285016108a3565b91505092915050565b60006020820190506108fa600083018461086b565b92915050565b60008151905061090f81610722565b92915050565b60006020828403121561092b5761092a6106b5565b5b600061093984828501610900565b91505092915050565b61094b81610718565b82525050565b6000604082019050610966600083018561086b565b6109736020830184610942565b9392505050565b60008115159050919050565b61098f8161097a565b811461099a57600080fd5b50565b6000815190506109ac81610986565b92915050565b6000602082840312156109c8576109c76106b5565b5b60006109d68482850161099d565b91505092915050565b600060e0820190506109f4600083018a61086b565b610a01602083018961086b565b610a0e6040830188610942565b610a1b6060830187610942565b610a286080830186610942565b610a3560a083018561086b565b610a4260c0830184610942565b98975050505050505050565b60008060408385031215610a6557610a646106b5565b5b6000610a7385828601610900565b9250506020610a8485828601610900565b9150509250929050565b600082825260208201905092915050565b7f616d6f756e744100000000000000000000000000000000000000000000000000600082015250565b6000610ad5600783610a8e565b9150610ae082610a9f565b602082019050919050565b60006040820190508181036000830152610b0481610ac8565b9050610b136020830184610942565b92915050565b7f616d6f756e744200000000000000000000000000000000000000000000000000600082015250565b6000610b4f600783610a8e565b9150610b5a82610b19565b602082019050919050565b60006040820190508181036000830152610b7e81610b42565b9050610b8d6020830184610942565b92915050565b6000606082019050610ba8600083018661086b565b610bb5602083018561086b565b610bc26040830184610942565b949350505050565b600061010082019050610be0600083018b61086b565b610bed602083018a61086b565b610bfa6040830189610942565b610c076060830188610942565b610c146080830187610942565b610c2160a0830186610942565b610c2e60c083018561086b565b610c3b60e0830184610942565b9998505050505050505050565b600080600060608486031215610c6157610c606106b5565b5b6000610c6f86828701610900565b9350506020610c8086828701610900565b9250506040610c9186828701610900565b9150509250925092565b7f6c69717569646974790000000000000000000000000000000000000000000000600082015250565b6000610cd1600983610a8e565b9150610cdc82610c9b565b602082019050919050565b60006040820190508181036000830152610d0081610cc4565b9050610d0f6020830184610942565b9291505056fea264697066735822122004dfb8818e873db97dd2b82fffc3c52dbef2ce47d1a7e49465c6b41a576e8c3b64736f6c634300080b0033",
  "immutableReferences": {},
  "source": "// SPDX-License-Identifier: MIT\r\npragma solidity ^0.8;\r\n\r\nimport \"@openzeppelin/contracts/token/ERC20/IERC20.sol\";\r\nimport \"./interfaces/Iuniswap.sol\";\r\n\r\ncontract Liquidity {\r\n  address private constant FACTORY = 0x5C69bEe701ef814a2B6a3EDD4B1652CB9cc5aA6f;\r\n  address private constant ROUTER = 0x7a250d5630B4cF539739dF2C5dAcb4c659F2488D;\r\n  address private constant WETH = 0xC02aaA39b223FE8D0A0e5C4F27eAD9083C756Cc2;\r\n\r\n  event Log(string message, uint val);\r\n\r\n  function addLiquidity(\r\n    address _tokenA,\r\n    address _tokenB,\r\n    uint _amountA,\r\n    uint _amountB,\r\n    uint _amountAmin,\r\n    uint _amountBmin,\r\n    address _to\r\n  ) external {\r\n    IERC20(_tokenA).transferFrom(msg.sender, address(this), _amountA);\r\n    IERC20(_tokenB).transferFrom(msg.sender, address(this), _amountB);\r\n\r\n    IERC20(_tokenA).approve(ROUTER, _amountA);\r\n    IERC20(_tokenB).approve(ROUTER, _amountB);\r\n\r\n    (uint amountA, uint amountB, uint liquidity) =\r\n      IUniswapV2Router(ROUTER).addLiquidity(\r\n        _tokenA,\r\n        _tokenB,\r\n        _amountA,\r\n        _amountB,\r\n        _amountAmin,\r\n        _amountBmin,\r\n        _to,\r\n        block.timestamp\r\n      );\r\n\r\n    emit Log(\"amountA\", amountA);\r\n    emit Log(\"amountB\", amountB);\r\n    emit Log(\"liquidity\", liquidity);\r\n  }\r\n\r\n  function removeLiquidity(address _tokenA, address _tokenB,uint amountAMin, uint amountBMin,address _to\r\n        ) external {\r\n    address pair = IUniswapV2Factory(FACTORY).getPair(_tokenA, _tokenB);\r\n\r\n    uint liquidity = IERC20(pair).balanceOf(address(this));\r\n    IERC20(pair).approve(ROUTER, liquidity);\r\n\r\n    (uint amountA, uint amountB) =\r\n      IUniswapV2Router(ROUTER).removeLiquidity(\r\n        _tokenA,\r\n        _tokenB,\r\n        liquidity,\r\n        amountAMin,\r\n        amountBMin,\r\n         _to,\r\n        block.timestamp\r\n      );\r\n\r\n    emit Log(\"amountA\", amountA);\r\n    emit Log(\"amountB\", amountB);\r\n  }\r\n}",
  "sourcePath": "E:\\blockchain\\enjoy\\contracts\\Liquidity.sol",
  "compiler": {
    "name": "solc",
    "version": "0.8.11+commit.d7f03943.Emscripten.clang"
  },
  "schemaVersion": "3.4.3",
  "updatedAt": "2021-12-29T16:00:38.741Z",
  "networkType": "ethereum",
  "devdoc": {
    "kind": "dev",
    "methods": {},
    "version": 1
  },
  "userdoc": {
    "kind": "user",
    "methods": {},
    "version": 1
  }
}